:100000001c9c05a504841dbda0a460a50000000dd6
:1000100018192e2fcdedcdbda1a2a3a4a5a6a7a8ea
:10002000a9aaabacadaeafb8b9bf1a5aba00bb0003
:10003000bbb0b1b2b3b4b5b6b706c4c686a500edc1
:10004000cd5da1a2a3a4a5a6a7a8a9aaabacadae5d
:10005000afb8b9bfbabb60bb60b0b1b2b3b4b5b6ec
:10006000b7bd1b9b40ed02e08405a5a606a606a62b
:1000700006a6e0061a5a400090919293949596979e
:100080009e9c9d9fe00290919293949596979e9c42
:100090009d9fe0a2850000e0c400e000e0a0bdbf9d
:1000a000b1b0800004100000001131220042500065
:1000b00040000000040000bdbfb3b2b1b080000436
:1000c00010000013603112601000004000623242e4
:1000d0000200040000bdbfb0800004100000000456
:1000e0000004000400040000bdbfb0800004100044
:1000f00000024242404200040242424042000400e8
:1001000002bdbfb000000242400242420484000629
:10011000000704840506000704840506000704841c
:1001200005a00007000202024003020202020200d0
:10013000000003000303024243040084000400049f
:100140000400840004000400040363026200000051
:100150000002424200424002036362004240024405
:10016000e000bdb080bfb1020040110051000004aa
:1001700004001002004000bfb1b000e0bdbdbfb13f
:10018000b08010114482400000848400100111bf2f
:10019000b1b0e0bdbdbf0000bf00e0bd024242e023
:1001a00042bdbf0000400242bf00e0bd03630282c7
:1001b00062e00002821a036362e0000242420082af
:1001c000e0420242420082e04203630282628464af
:1001d000e000a00902624404840242436468c6212c
:1001e00020220202220246034322400300632240ef
:1001f000632240030063224063680402066802220f
:1002000005a502420962a2048402a8c783c7e000d0
:10021000000000000000486c612020310053000005
:00000001ff
